{
  "contractName": "Roulette",
  "abi": [
    {
      "inputs": [],
      "payable": true,
      "stateMutability": "payable",
      "type": "constructor"
    },
    {
      "anonymous": false,
      "inputs": [
        {
          "indexed": false,
          "internalType": "bool",
          "name": "winner",
          "type": "bool"
        },
        {
          "indexed": false,
          "internalType": "uint256",
          "name": "winnings",
          "type": "uint256"
        },
        {
          "indexed": false,
          "internalType": "uint8",
          "name": "outcome",
          "type": "uint8"
        }
      ],
      "name": "GameResult",
      "type": "event"
    },
    {
      "anonymous": false,
      "inputs": [
        {
          "indexed": false,
          "internalType": "string",
          "name": "description",
          "type": "string"
        }
      ],
      "name": "LogNewProvableQuery",
      "type": "event"
    },
    {
      "payable": true,
      "stateMutability": "payable",
      "type": "fallback"
    },
    {
      "constant": true,
      "inputs": [
        {
          "internalType": "address",
          "name": "",
          "type": "address"
        }
      ],
      "name": "losses",
      "outputs": [
        {
          "internalType": "uint256",
          "name": "",
          "type": "uint256"
        }
      ],
      "payable": false,
      "stateMutability": "view",
      "type": "function"
    },
    {
      "constant": true,
      "inputs": [
        {
          "internalType": "address",
          "name": "",
          "type": "address"
        }
      ],
      "name": "winnings",
      "outputs": [
        {
          "internalType": "uint256",
          "name": "",
          "type": "uint256"
        }
      ],
      "payable": false,
      "stateMutability": "view",
      "type": "function"
    },
    {
      "constant": false,
      "inputs": [],
      "name": "destroy",
      "outputs": [],
      "payable": false,
      "stateMutability": "nonpayable",
      "type": "function"
    },
    {
      "constant": false,
      "inputs": [
        {
          "internalType": "uint8",
          "name": "_number",
          "type": "uint8"
        },
        {
          "internalType": "uint8",
          "name": "_betType",
          "type": "uint8"
        }
      ],
      "name": "play",
      "outputs": [],
      "payable": true,
      "stateMutability": "payable",
      "type": "function"
    },
    {
      "constant": false,
      "inputs": [
        {
          "internalType": "bytes32",
          "name": "_queryId",
          "type": "bytes32"
        },
        {
          "internalType": "string",
          "name": "_result",
          "type": "string"
        }
      ],
      "name": "__callback",
      "outputs": [],
      "payable": false,
      "stateMutability": "nonpayable",
      "type": "function"
    },
    {
      "constant": false,
      "inputs": [
        {
          "internalType": "bytes32",
          "name": "_myid",
          "type": "bytes32"
        },
        {
          "internalType": "string",
          "name": "_result",
          "type": "string"
        },
        {
          "internalType": "bytes",
          "name": "_proof",
          "type": "bytes"
        }
      ],
      "name": "__callback",
      "outputs": [],
      "payable": false,
      "stateMutability": "nonpayable",
      "type": "function"
    }
  ],
  "bytecode": "0x608060405233600560006101000a81548173ffffffffffffffffffffffffffffffffffffffff021916908373ffffffffffffffffffffffffffffffffffffffff160217905550611f25806100546000396000f3fe6080604052600436106100555760003560e01c806327dc297e1461005757806338bbfa501461012957806383197ef014610292578063c903c233146102a9578063e802c36f1461030e578063ea3a14991461034c575b005b34801561006357600080fd5b506101276004803603604081101561007a57600080fd5b8101908080359060200190929190803590602001906401000000008111156100a157600080fd5b8201836020820111156100b357600080fd5b803590602001918460018302840111640100000000831117156100d557600080fd5b91908080601f016020809104026020016040519081016040528093929190818152602001838380828437600081840152601f19601f8201169050808301925050505050505091929192905050506103b1565b005b34801561013557600080fd5b506102906004803603606081101561014c57600080fd5b81019080803590602001909291908035906020019064010000000081111561017357600080fd5b82018360208201111561018557600080fd5b803590602001918460018302840111640100000000831117156101a757600080fd5b91908080601f016020809104026020016040519081016040528093929190818152602001838380828437600081840152601f19601f8201169050808301925050505050505091929192908035906020019064010000000081111561020a57600080fd5b82018360208201111561021c57600080fd5b8035906020019184600183028401116401000000008311171561023e57600080fd5b91908080601f016020809104026020016040519081016040528093929190818152602001838380828437600081840152601f19601f820116905080830192505050505050509192919290505050610ade565b005b34801561029e57600080fd5b506102a7610b01565b005b3480156102b557600080fd5b506102f8600480360360208110156102cc57600080fd5b81019080803573ffffffffffffffffffffffffffffffffffffffff169060200190929190505050610bc0565b6040518082815260200191505060405180910390f35b61034a6004803603604081101561032457600080fd5b81019080803560ff169060200190929190803560ff169060200190929190505050610bd8565b005b34801561035857600080fd5b5061039b6004803603602081101561036f57600080fd5b81019080803573ffffffffffffffffffffffffffffffffffffffff169060200190929190505050610fa4565b6040518082815260200191505060405180910390f35b6103b9610fbc565b73ffffffffffffffffffffffffffffffffffffffff163373ffffffffffffffffffffffffffffffffffffffff16146103f057600080fd5b6103f8611dac565b600660008481526020019081526020016000206040518060800160405290816000820160009054906101000a900473ffffffffffffffffffffffffffffffffffffffff1673ffffffffffffffffffffffffffffffffffffffff1673ffffffffffffffffffffffffffffffffffffffff1681526020016000820160149054906101000a900460ff1660ff1660ff1681526020016000820160159054906101000a900460ff1660ff1660ff168152602001600182015481525050905060006002836040516020018082805190602001908083835b602083106104ed57805182526020820191506020810190506020830392506104ca565b6001836020036101000a0380198251168184511680821785525050505050509050019150506040516020818303038152906040528051906020012060001c8161053257fe5b069050600080905060008090506000846040015160ff16141561062f57600060028460ff168161055e57fe5b0660ff1614156105d0576001905060028460600151029150836060015160086000866000015173ffffffffffffffffffffffffffffffffffffffff1673ffffffffffffffffffffffffffffffffffffffff1681526020019081526020016000206000828254019250508190555061062a565b60009050836060015160076000866000015173ffffffffffffffffffffffffffffffffffffffff1673ffffffffffffffffffffffffffffffffffffffff168152602001908152602001600020600082825401925050819055505b6109cd565b6001846040015160ff16141561071e57600060028460ff168161064e57fe5b0660ff16146106bf576001905060028460600151029150836060015160086000866000015173ffffffffffffffffffffffffffffffffffffffff1673ffffffffffffffffffffffffffffffffffffffff16815260200190815260200160002060008282540192505081905550610719565b60009050836060015160076000866000015173ffffffffffffffffffffffffffffffffffffffff1673ffffffffffffffffffffffffffffffffffffffff168152602001908152602001600020600082825401925050819055505b6109cc565b6002846040015160ff1614156108015760138360ff1610156107a2576001905060028460600151029150836060015160086000866000015173ffffffffffffffffffffffffffffffffffffffff1673ffffffffffffffffffffffffffffffffffffffff168152602001908152602001600020600082825401925050819055506107fc565b60009050836060015160076000866000015173ffffffffffffffffffffffffffffffffffffffff1673ffffffffffffffffffffffffffffffffffffffff168152602001908152602001600020600082825401925050819055505b6109cb565b6003846040015160ff1614156108e45760128360ff161115610885576001905060028460600151029150836060015160086000866000015173ffffffffffffffffffffffffffffffffffffffff1673ffffffffffffffffffffffffffffffffffffffff168152602001908152602001600020600082825401925050819055506108df565b60009050836060015160076000866000015173ffffffffffffffffffffffffffffffffffffffff1673ffffffffffffffffffffffffffffffffffffffff168152602001908152602001600020600082825401925050819055505b6109ca565b6004846040015160ff1614156109c957836020015160ff168360ff16141561096e576001905060248460600151029150836060015160086000866000015173ffffffffffffffffffffffffffffffffffffffff1673ffffffffffffffffffffffffffffffffffffffff168152602001908152602001600020600082825401925050819055506109c8565b60009050836060015160076000866000015173ffffffffffffffffffffffffffffffffffffffff1673ffffffffffffffffffffffffffffffffffffffff168152602001908152602001600020600082825401925050819055505b5b5b5b5b5b836000015173ffffffffffffffffffffffffffffffffffffffff166108fc839081150290604051600060405180830381858888f19350505050158015610a17573d6000803e3d6000fd5b5060066000878152602001908152602001600020600080820160006101000a81549073ffffffffffffffffffffffffffffffffffffffff02191690556000820160146101000a81549060ff02191690556000820160156101000a81549060ff0219169055600182016000905550507f5d468770651718debc90ed3a8c3683eb243b8acd8b13a1de47128c8a1ab66f7681838560405180841515151581526020018381526020018260ff1660ff168152602001935050505060405180910390a1505050505050565b6000801b600360008060001b815260200190815260200160002081905550505050565b600560009054906101000a900473ffffffffffffffffffffffffffffffffffffffff1673ffffffffffffffffffffffffffffffffffffffff163373ffffffffffffffffffffffffffffffffffffffff1614610ba7576040517f08c379a0000000000000000000000000000000000000000000000000000000008152600401808060200182810382526028815260200180611e966028913960400191505060405180910390fd5b3373ffffffffffffffffffffffffffffffffffffffff16ff5b60076020528060005260406000206000915090505481565b67016345785d8a00003411610c55576040517f08c379a000000000000000000000000000000000000000000000000000000000815260040180806020018281038252601e8152602001807f426574206d757374206265206174206c6561737420302e31204574686572000081525060200191505060405180910390fd5b3073ffffffffffffffffffffffffffffffffffffffff1631600234021115610cc8576040517f08c379a0000000000000000000000000000000000000000000000000000000008152600401808060200182810382526033815260200180611ebe6033913960400191505060405180910390fd5b60008260ff161180610cde575060248260ff1611155b610d50576040517f08c379a000000000000000000000000000000000000000000000000000000000815260040180806020018281038252601f8152602001807f6e756d626572206d757374206265206265747765656e203020616e642033370081525060200191505060405180910390fd5b60008160ff16101580610d67575060048160ff1611155b610dd9576040517f08c379a000000000000000000000000000000000000000000000000000000000815260040180806020018281038252601e8152602001807f6e756d626572206d757374206265206265747765656e203020616e642035000081525060200191505060405180910390fd5b6000610e4f6040518060400160405280600c81526020017f576f6c6672616d416c70686100000000000000000000000000000000000000008152506040518060400160405280601e81526020017f72616e646f6d206e756d626572206265747765656e203120616e6420333700008152506112d9565b90507fc4dc360d0a9c0677a3379ae0a3d81e887f761e65fdf3d7e00859d1bcd3c4738960405180806020018281038252601e8152602001807f67656e657265617465642072616e646f6d206e756d626572207175657279000081525060200191505060405180910390a160405180608001604052803373ffffffffffffffffffffffffffffffffffffffff1681526020018460ff1681526020018360ff168152602001348152506006600083815260200190815260200160002060008201518160000160006101000a81548173ffffffffffffffffffffffffffffffffffffffff021916908373ffffffffffffffffffffffffffffffffffffffff16021790555060208201518160000160146101000a81548160ff021916908360ff16021790555060408201518160000160156101000a81548160ff021916908360ff16021790555060608201518160010155905050505050565b60086020528060005260406000206000915090505481565b60008073ffffffffffffffffffffffffffffffffffffffff16600160009054906101000a900473ffffffffffffffffffffffffffffffffffffffff1673ffffffffffffffffffffffffffffffffffffffff16148061104457506000611042600160009054906101000a900473ffffffffffffffffffffffffffffffffffffffff1661181f565b145b1561105557611053600061182a565b505b600160009054906101000a900473ffffffffffffffffffffffffffffffffffffffff1673ffffffffffffffffffffffffffffffffffffffff166338cc48316040518163ffffffff1660e01b8152600401602060405180830381600087803b1580156110bf57600080fd5b505af11580156110d3573d6000803e3d6000fd5b505050506040513d60208110156110e957600080fd5b810190808051906020019092919050505073ffffffffffffffffffffffffffffffffffffffff166000809054906101000a900473ffffffffffffffffffffffffffffffffffffffff1673ffffffffffffffffffffffffffffffffffffffff161461123257600160009054906101000a900473ffffffffffffffffffffffffffffffffffffffff1673ffffffffffffffffffffffffffffffffffffffff166338cc48316040518163ffffffff1660e01b8152600401602060405180830381600087803b1580156111b757600080fd5b505af11580156111cb573d6000803e3d6000fd5b505050506040513d60208110156111e157600080fd5b81019080805190602001909291905050506000806101000a81548173ffffffffffffffffffffffffffffffffffffffff021916908373ffffffffffffffffffffffffffffffffffffffff1602179055505b6000809054906101000a900473ffffffffffffffffffffffffffffffffffffffff1673ffffffffffffffffffffffffffffffffffffffff1663c281d19e6040518163ffffffff1660e01b815260040160206040518083038186803b15801561129957600080fd5b505afa1580156112ad573d6000803e3d6000fd5b505050506040513d60208110156112c357600080fd5b8101908080519060200190929190505050905090565b60008073ffffffffffffffffffffffffffffffffffffffff16600160009054906101000a900473ffffffffffffffffffffffffffffffffffffffff1673ffffffffffffffffffffffffffffffffffffffff1614806113615750600061135f600160009054906101000a900473ffffffffffffffffffffffffffffffffffffffff1661181f565b145b1561137257611370600061182a565b505b600160009054906101000a900473ffffffffffffffffffffffffffffffffffffffff1673ffffffffffffffffffffffffffffffffffffffff166338cc48316040518163ffffffff1660e01b8152600401602060405180830381600087803b1580156113dc57600080fd5b505af11580156113f0573d6000803e3d6000fd5b505050506040513d602081101561140657600080fd5b810190808051906020019092919050505073ffffffffffffffffffffffffffffffffffffffff166000809054906101000a900473ffffffffffffffffffffffffffffffffffffffff1673ffffffffffffffffffffffffffffffffffffffff161461154f57600160009054906101000a900473ffffffffffffffffffffffffffffffffffffffff1673ffffffffffffffffffffffffffffffffffffffff166338cc48316040518163ffffffff1660e01b8152600401602060405180830381600087803b1580156114d457600080fd5b505af11580156114e8573d6000803e3d6000fd5b505050506040513d60208110156114fe57600080fd5b81019080805190602001909291905050506000806101000a81548173ffffffffffffffffffffffffffffffffffffffff021916908373ffffffffffffffffffffffffffffffffffffffff1602179055505b60008060009054906101000a900473ffffffffffffffffffffffffffffffffffffffff1673ffffffffffffffffffffffffffffffffffffffff1663524f3889856040518263ffffffff1660e01b81526004018080602001828103825283818151815260200191508051906020019080838360005b838110156115de5780820151818401526020810190506115c3565b50505050905090810190601f16801561160b5780820380516001836020036101000a031916815260200191505b5092505050602060405180830381600087803b15801561162a57600080fd5b505af115801561163e573d6000803e3d6000fd5b505050506040513d602081101561165457600080fd5b8101908080519060200190929190505050905062030d403a02670de0b6b3a76400000181111561168a576000801b915050611819565b6000809054906101000a900473ffffffffffffffffffffffffffffffffffffffff1673ffffffffffffffffffffffffffffffffffffffff1663adf59f9982600087876040518563ffffffff1660e01b8152600401808481526020018060200180602001838103835285818151815260200191508051906020019080838360005b8381101561172557808201518184015260208101905061170a565b50505050905090810190601f1680156117525780820380516001836020036101000a031916815260200191505b50838103825284818151815260200191508051906020019080838360005b8381101561178b578082015181840152602081019050611770565b50505050905090810190601f1680156117b85780820380516001836020036101000a031916815260200191505b50955050505050506020604051808303818588803b1580156117d957600080fd5b505af11580156117ed573d6000803e3d6000fd5b50505050506040513d602081101561180457600080fd5b81019080805190602001909291905050509150505b92915050565b6000813b9050919050565b600061183461183b565b9050919050565b60008061185b731d3b2638a7cc9f2cb3d298a3da7a90b67e5506ed61181f565b11156118fd57731d3b2638a7cc9f2cb3d298a3da7a90b67e5506ed600160006101000a81548173ffffffffffffffffffffffffffffffffffffffff021916908373ffffffffffffffffffffffffffffffffffffffff1602179055506118f46040518060400160405280600b81526020017f6574685f6d61696e6e6574000000000000000000000000000000000000000000815250611d92565b60019050611d8f565b600061191c73c03a2615d5efaf5f49f60b7bb6583eaec212fdf161181f565b11156119be5773c03a2615d5efaf5f49f60b7bb6583eaec212fdf1600160006101000a81548173ffffffffffffffffffffffffffffffffffffffff021916908373ffffffffffffffffffffffffffffffffffffffff1602179055506119b56040518060400160405280600c81526020017f6574685f726f707374656e330000000000000000000000000000000000000000815250611d92565b60019050611d8f565b60006119dd73b7a07bcf2ba2f2703b24c0691b5278999c59ac7e61181f565b1115611a7f5773b7a07bcf2ba2f2703b24c0691b5278999c59ac7e600160006101000a81548173ffffffffffffffffffffffffffffffffffffffff021916908373ffffffffffffffffffffffffffffffffffffffff160217905550611a766040518060400160405280600981526020017f6574685f6b6f76616e0000000000000000000000000000000000000000000000815250611d92565b60019050611d8f565b6000611a9e73146500cfd35b22e4a392fe0adc06de1a1368ed4861181f565b1115611b405773146500cfd35b22e4a392fe0adc06de1a1368ed48600160006101000a81548173ffffffffffffffffffffffffffffffffffffffff021916908373ffffffffffffffffffffffffffffffffffffffff160217905550611b376040518060400160405280600b81526020017f6574685f72696e6b656279000000000000000000000000000000000000000000815250611d92565b60019050611d8f565b6000611b5f73a2998efd205fb9d4b4963afb70778d6354ad3a4161181f565b1115611c015773a2998efd205fb9d4b4963afb70778d6354ad3a41600160006101000a81548173ffffffffffffffffffffffffffffffffffffffff021916908373ffffffffffffffffffffffffffffffffffffffff160217905550611bf86040518060400160405280600a81526020017f6574685f676f65726c6900000000000000000000000000000000000000000000815250611d92565b60019050611d8f565b6000611c20736f485c8bf6fc43ea212e93bbf8ce046c7f1cb47561181f565b1115611c8457736f485c8bf6fc43ea212e93bbf8ce046c7f1cb475600160006101000a81548173ffffffffffffffffffffffffffffffffffffffff021916908373ffffffffffffffffffffffffffffffffffffffff16021790555060019050611d8f565b6000611ca37320e12a1f859b3feae5fb2a0a32c18f5a65555bbf61181f565b1115611d07577320e12a1f859b3feae5fb2a0a32c18f5a65555bbf600160006101000a81548173ffffffffffffffffffffffffffffffffffffffff021916908373ffffffffffffffffffffffffffffffffffffffff16021790555060019050611d8f565b6000611d267351efaf4c8b3c9afbd5ab9f4bbc82784ab6ef8faa61181f565b1115611d8a577351efaf4c8b3c9afbd5ab9f4bbc82784ab6ef8faa600160006101000a81548173ffffffffffffffffffffffffffffffffffffffff021916908373ffffffffffffffffffffffffffffffffffffffff16021790555060019050611d8f565b600090505b90565b8060029080519060200190611da8929190611df0565b5050565b6040518060800160405280600073ffffffffffffffffffffffffffffffffffffffff168152602001600060ff168152602001600060ff168152602001600081525090565b828054600181600116156101000203166002900490600052602060002090601f016020900481019282601f10611e3157805160ff1916838001178555611e5f565b82800160010185558215611e5f579182015b82811115611e5e578251825591602001919060010190611e43565b5b509050611e6c9190611e70565b5090565b611e9291905b80821115611e8e576000816000905550600101611e76565b5090565b9056fe6f6e6c7920746865206f776e65722063616e2064657374726f79207468697320636f6e7472616374436f6e74726163742063616e277420706179206f75742074686174206b696e64206f66206d6f6e6579207269676874206e6f77a265627a7a72315820692b0f944d1c799b9f882eae56f9d405218c294fac0234dc53528739ee4e735c64736f6c634300050c0032",
  "source": "pragma solidity >= 0.5.0 < 0.6.0;\r\n\r\nimport \"./provableApi.sol\";\r\n\r\ncontract Roulette is usingProvable {\r\n\r\n    struct Game {\r\n        address payable player;\r\n        uint8 number;\r\n        uint8 betType;\r\n        uint bet;\r\n    }\r\n\r\n    address private owner;\r\n\r\n    mapping (bytes32 => Game) private games;\r\n    mapping (address => uint256) public losses;\r\n    mapping (address => uint256) public winnings;\r\n\r\n    /*\r\n    BetTypes are as follow:\r\n    0: color red\r\n    1: color black\r\n    2: first eighteen\r\n    3: last eighteen\r\n    4: number\r\n    */\r\n\r\n    event GameResult(bool winner, uint256 winnings, uint8 outcome);\r\n    event LogNewProvableQuery(string description);\r\n\r\n    constructor() public payable {\r\n        owner = msg.sender;\r\n    }\r\n\r\n\r\n    function destroy() public {\r\n        require(msg.sender == owner, \"only the owner can destroy this contract\");\r\n        selfdestruct(msg.sender);\r\n    }\r\n\r\n    function () external payable { }\r\n\r\n\r\n\r\n    function play(uint8 _number, uint8 _betType) public payable {\r\n        require(msg.value > 0.1 ether, \"Bet must be at least 0.1 Ether\");\r\n        require(msg.value * 2 <= address(this).balance, \"Contract can't pay out that kind of money right now\");\r\n        require(_number > 0 || _number <= 36, \"number must be between 0 and 37\");\r\n        require(_betType >= 0 || _betType <= 4, \"number must be between 0 and 5\");\r\n\r\n        bytes32 queryId = provable_query(\"WolframAlpha\", \"random number between 1 and 37\");\r\n        emit LogNewProvableQuery(\"genereated random number query\");\r\n\r\n        games[queryId] = Game(msg.sender, _number, _betType, msg.value);\r\n    }\r\n\r\n\r\n    function __callback(bytes32 _queryId, string memory _result) public {\r\n        require(msg.sender == provable_cbAddress());\r\n        Game memory game = games[_queryId];\r\n        uint8 result = uint8(uint256(keccak256(abi.encodePacked(_result))) % 2);\r\n\r\n        uint256 playerWinnings = 0;\r\n        bool playerWon = false;\r\n\r\n        if(game.betType == 0) {\r\n            if(result % 2 == 0) {\r\n                playerWon = true;\r\n                playerWinnings = game.bet * 2;\r\n                winnings[game.player] += game.bet;\r\n            } else {\r\n                playerWon = false;\r\n                losses[game.player] += game.bet;\r\n            }\r\n        } else  if(game.betType == 1) {\r\n            if(result % 2 != 0) {\r\n                playerWon = true;\r\n                playerWinnings = game.bet * 2;\r\n                winnings[game.player] += game.bet;\r\n            } else {\r\n                playerWon = false;\r\n                losses[game.player] += game.bet;\r\n            }\r\n        } else  if(game.betType == 2) {\r\n            if(result < 19) {\r\n                playerWon = true;\r\n                playerWinnings = game.bet * 2;\r\n                winnings[game.player] += game.bet;\r\n            } else {\r\n                playerWon = false;\r\n                losses[game.player] += game.bet;\r\n            }\r\n        } else  if(game.betType == 3) {\r\n            if(result > 18) {\r\n                playerWon = true;\r\n                playerWinnings = game.bet * 2;\r\n                winnings[game.player] += game.bet;\r\n            } else {\r\n                playerWon = false;\r\n                losses[game.player] += game.bet;\r\n            }\r\n        }  else  if(game.betType == 4) {\r\n            if(result == game.number) {\r\n                playerWon = true;\r\n                playerWinnings = game.bet * 36;\r\n                winnings[game.player] += game.bet;\r\n            } else {\r\n                playerWon = false;\r\n                losses[game.player] += game.bet;\r\n            }\r\n        }\r\n\r\n        game.player.transfer(playerWinnings);\r\n\r\n\r\n        delete games[_queryId];\r\n        emit GameResult(playerWon, playerWinnings, result);\r\n    }\r\n}\r\n",
  "sourcePath": "D:\\school\\minor-BC\\BC2_Lars\\Day_07\\truffle\\contracts\\Roulette.sol",
  "compiler": {
    "name": "solc",
    "version": "0.5.12+commit.7709ece9.Emscripten.clang"
  },
  "schemaVersion": "3.2.0",
  "updatedAt": "2020-06-08T10:37:26.894Z",
  "devdoc": {
    "methods": {}
  },
  "userdoc": {
    "methods": {}
  }
}