{
  "contractName": "BadgeGenerator",
  "abi": [
    {
      "inputs": [],
      "payable": false,
      "stateMutability": "nonpayable",
      "type": "constructor"
    },
    {
      "anonymous": false,
      "inputs": [
        {
          "indexed": false,
          "internalType": "address",
          "name": "_address",
          "type": "address"
        }
      ],
      "name": "addedCreator",
      "type": "event"
    },
    {
      "anonymous": false,
      "inputs": [
        {
          "indexed": false,
          "internalType": "uint256",
          "name": "badgeId",
          "type": "uint256"
        }
      ],
      "name": "badgeCreated",
      "type": "event"
    },
    {
      "anonymous": false,
      "inputs": [
        {
          "indexed": false,
          "internalType": "address",
          "name": "_address",
          "type": "address"
        }
      ],
      "name": "removedCreator",
      "type": "event"
    },
    {
      "constant": true,
      "inputs": [],
      "name": "badgeCount",
      "outputs": [
        {
          "internalType": "uint256",
          "name": "",
          "type": "uint256"
        }
      ],
      "payable": false,
      "stateMutability": "view",
      "type": "function"
    },
    {
      "constant": true,
      "inputs": [
        {
          "internalType": "uint256",
          "name": "",
          "type": "uint256"
        }
      ],
      "name": "badges",
      "outputs": [
        {
          "internalType": "uint256",
          "name": "id",
          "type": "uint256"
        },
        {
          "internalType": "string",
          "name": "metadataUrl",
          "type": "string"
        },
        {
          "internalType": "address",
          "name": "owner",
          "type": "address"
        }
      ],
      "payable": false,
      "stateMutability": "view",
      "type": "function"
    },
    {
      "constant": true,
      "inputs": [
        {
          "internalType": "address",
          "name": "",
          "type": "address"
        }
      ],
      "name": "creators",
      "outputs": [
        {
          "internalType": "bool",
          "name": "",
          "type": "bool"
        }
      ],
      "payable": false,
      "stateMutability": "view",
      "type": "function"
    },
    {
      "constant": true,
      "inputs": [],
      "name": "owner",
      "outputs": [
        {
          "internalType": "address",
          "name": "",
          "type": "address"
        }
      ],
      "payable": false,
      "stateMutability": "view",
      "type": "function"
    },
    {
      "constant": false,
      "inputs": [
        {
          "internalType": "address",
          "name": "_address",
          "type": "address"
        }
      ],
      "name": "addCreator",
      "outputs": [],
      "payable": false,
      "stateMutability": "nonpayable",
      "type": "function"
    },
    {
      "constant": false,
      "inputs": [
        {
          "internalType": "address",
          "name": "_address",
          "type": "address"
        }
      ],
      "name": "removeCreator",
      "outputs": [],
      "payable": false,
      "stateMutability": "nonpayable",
      "type": "function"
    },
    {
      "constant": false,
      "inputs": [
        {
          "internalType": "string",
          "name": "_metadataUrl",
          "type": "string"
        }
      ],
      "name": "createBadge",
      "outputs": [
        {
          "internalType": "uint256",
          "name": "badgeId",
          "type": "uint256"
        }
      ],
      "payable": false,
      "stateMutability": "nonpayable",
      "type": "function"
    },
    {
      "constant": false,
      "inputs": [
        {
          "internalType": "uint256",
          "name": "_badgeId",
          "type": "uint256"
        },
        {
          "internalType": "address",
          "name": "_address",
          "type": "address"
        }
      ],
      "name": "addBadgeCreator",
      "outputs": [],
      "payable": false,
      "stateMutability": "nonpayable",
      "type": "function"
    },
    {
      "constant": false,
      "inputs": [
        {
          "internalType": "uint256",
          "name": "_badgeId",
          "type": "uint256"
        },
        {
          "internalType": "address",
          "name": "_address",
          "type": "address"
        }
      ],
      "name": "removeBadgeCreator",
      "outputs": [],
      "payable": false,
      "stateMutability": "nonpayable",
      "type": "function"
    },
    {
      "constant": true,
      "inputs": [
        {
          "internalType": "uint256",
          "name": "_badgeId",
          "type": "uint256"
        },
        {
          "internalType": "address",
          "name": "_address",
          "type": "address"
        }
      ],
      "name": "isBadgeCreator",
      "outputs": [
        {
          "internalType": "bool",
          "name": "",
          "type": "bool"
        }
      ],
      "payable": false,
      "stateMutability": "view",
      "type": "function"
    }
  ],
  "bytecode": "0x608060405234801561001057600080fd5b50336000806101000a81548173ffffffffffffffffffffffffffffffffffffffff021916908373ffffffffffffffffffffffffffffffffffffffff1602179055506001600360003373ffffffffffffffffffffffffffffffffffffffff1673ffffffffffffffffffffffffffffffffffffffff16815260200190815260200160002060006101000a81548160ff021916908315150217905550610fc3806100b86000396000f3fe608060405234801561001057600080fd5b506004361061009e5760003560e01c8063933166e111610066578063933166e11461020357806398e36d8b1461025f578063996c6a9314610340578063b7cca3081461040f578063bd6018bb1461045d5761009e565b80633b9dce05146100a35780635b806645146100e7578063762f617614610105578063878fc41c146101535780638da5cb5b146101b9575b600080fd5b6100e5600480360360208110156100b957600080fd5b81019080803573ffffffffffffffffffffffffffffffffffffffff1690602001909291905050506104a1565b005b6100ef610621565b6040518082815260200191505060405180910390f35b6101516004803603604081101561011b57600080fd5b8101908080359060200190929190803573ffffffffffffffffffffffffffffffffffffffff169060200190929190505050610627565b005b61019f6004803603604081101561016957600080fd5b8101908080359060200190929190803573ffffffffffffffffffffffffffffffffffffffff169060200190929190505050610792565b604051808215151515815260200191505060405180910390f35b6101c1610881565b604051808273ffffffffffffffffffffffffffffffffffffffff1673ffffffffffffffffffffffffffffffffffffffff16815260200191505060405180910390f35b6102456004803603602081101561021957600080fd5b81019080803573ffffffffffffffffffffffffffffffffffffffff1690602001909291905050506108a6565b604051808215151515815260200191505060405180910390f35b61028b6004803603602081101561027557600080fd5b81019080803590602001909291905050506108c6565b60405180848152602001806020018373ffffffffffffffffffffffffffffffffffffffff1673ffffffffffffffffffffffffffffffffffffffff168152602001828103825284818151815260200191508051906020019080838360005b838110156103035780820151818401526020810190506102e8565b50505050905090810190601f1680156103305780820380516001836020036101000a031916815260200191505b5094505050505060405180910390f35b6103f96004803603602081101561035657600080fd5b810190808035906020019064010000000081111561037357600080fd5b82018360208201111561038557600080fd5b803590602001918460018302840111640100000000831117156103a757600080fd5b91908080601f016020809104026020016040519081016040528093929190818152602001838380828437600081840152601f19601f8201169050808301925050505050505091929192905050506109a8565b6040518082815260200191505060405180910390f35b61045b6004803603604081101561042557600080fd5b8101908080359060200190929190803573ffffffffffffffffffffffffffffffffffffffff169060200190929190505050610bfe565b005b61049f6004803603602081101561047357600080fd5b81019080803573ffffffffffffffffffffffffffffffffffffffff169060200190929190505050610d69565b005b6000809054906101000a900473ffffffffffffffffffffffffffffffffffffffff1673ffffffffffffffffffffffffffffffffffffffff163373ffffffffffffffffffffffffffffffffffffffff1614610563576040517f08c379a00000000000000000000000000000000000000000000000000000000081526004018080602001828103825260158152602001807f596f7520617265206e6f7420746865206f776e6572000000000000000000000081525060200191505060405180910390fd5b6001600360008373ffffffffffffffffffffffffffffffffffffffff1673ffffffffffffffffffffffffffffffffffffffff16815260200190815260200160002060006101000a81548160ff0219169083151502179055507f1f9f86dc4a3ce57ee42e33c59def65713163420d0ab979169ef129299ff2b85e81604051808273ffffffffffffffffffffffffffffffffffffffff1673ffffffffffffffffffffffffffffffffffffffff16815260200191505060405180910390a150565b60015481565b8160006002600083815260200190815260200160002090503373ffffffffffffffffffffffffffffffffffffffff168160020160009054906101000a900473ffffffffffffffffffffffffffffffffffffffff1673ffffffffffffffffffffffffffffffffffffffff161461069b57600080fd5b600084101580156106ae57506001548411155b610720576040517f08c379a00000000000000000000000000000000000000000000000000000000081526004018080602001828103825260108152602001807f696e76616c69642062616467652069640000000000000000000000000000000081525060200191505060405180910390fd5b60006002600086815260200190815260200160002060030160008573ffffffffffffffffffffffffffffffffffffffff1673ffffffffffffffffffffffffffffffffffffffff16815260200190815260200160002060006101000a81548160ff02191690831515021790555050505050565b60008083101580156107a657506001548311155b610818576040517f08c379a00000000000000000000000000000000000000000000000000000000081526004018080602001828103825260108152602001807f696e76616c69642062616467652069640000000000000000000000000000000081525060200191505060405180910390fd5b6002600084815260200190815260200160002060030160008373ffffffffffffffffffffffffffffffffffffffff1673ffffffffffffffffffffffffffffffffffffffff16815260200190815260200160002060009054906101000a900460ff16905092915050565b6000809054906101000a900473ffffffffffffffffffffffffffffffffffffffff1681565b60036020528060005260406000206000915054906101000a900460ff1681565b6002602052806000526040600020600091509050806000015490806001018054600181600116156101000203166002900480601f0160208091040260200160405190810160405280929190818152602001828054600181600116156101000203166002900480156109785780601f1061094d57610100808354040283529160200191610978565b820191906000526020600020905b81548152906001019060200180831161095b57829003601f168201915b5050505050908060020160009054906101000a900473ffffffffffffffffffffffffffffffffffffffff16905083565b6000600360003373ffffffffffffffffffffffffffffffffffffffff1673ffffffffffffffffffffffffffffffffffffffff16815260200190815260200160002060009054906101000a900460ff16610a69576040517f08c379a000000000000000000000000000000000000000000000000000000000815260040180806020018281038252601b8152602001807f596f7520617265206e6f7420612062616467652063726561746f72000000000081525060200191505060405180910390fd5b60006001541015610ae2576040517f08c379a00000000000000000000000000000000000000000000000000000000081526004018080602001828103825260128152602001807f696e76616c6964206261646765436f756e74000000000000000000000000000081525060200191505060405180910390fd5b604051806060016040528060015481526020018381526020013373ffffffffffffffffffffffffffffffffffffffff16815250600260006001548152602001908152602001600020600082015181600001556020820151816001019080519060200190610b50929190610ee9565b5060408201518160020160006101000a81548173ffffffffffffffffffffffffffffffffffffffff021916908373ffffffffffffffffffffffffffffffffffffffff160217905550905050610ba760015433610bfe565b7fa6aea52f0880a9990c8b035b17b7d2c079bdb21baebf97d0659b80f91235c38f6001546040518082815260200191505060405180910390a160016000815480929190600101919050555060018054039050919050565b8160006002600083815260200190815260200160002090503373ffffffffffffffffffffffffffffffffffffffff168160020160009054906101000a900473ffffffffffffffffffffffffffffffffffffffff1673ffffffffffffffffffffffffffffffffffffffff1614610c7257600080fd5b60008410158015610c8557506001548411155b610cf7576040517f08c379a00000000000000000000000000000000000000000000000000000000081526004018080602001828103825260108152602001807f696e76616c69642062616467652069640000000000000000000000000000000081525060200191505060405180910390fd5b60016002600086815260200190815260200160002060030160008573ffffffffffffffffffffffffffffffffffffffff1673ffffffffffffffffffffffffffffffffffffffff16815260200190815260200160002060006101000a81548160ff02191690831515021790555050505050565b6000809054906101000a900473ffffffffffffffffffffffffffffffffffffffff1673ffffffffffffffffffffffffffffffffffffffff163373ffffffffffffffffffffffffffffffffffffffff1614610e2b576040517f08c379a00000000000000000000000000000000000000000000000000000000081526004018080602001828103825260158152602001807f596f7520617265206e6f7420746865206f776e6572000000000000000000000081525060200191505060405180910390fd5b6000600360008373ffffffffffffffffffffffffffffffffffffffff1673ffffffffffffffffffffffffffffffffffffffff16815260200190815260200160002060006101000a81548160ff0219169083151502179055507f0925d0e195cc39b7ade3fd58fdf494022e37bfd6242c2be09c0b2863977c187981604051808273ffffffffffffffffffffffffffffffffffffffff1673ffffffffffffffffffffffffffffffffffffffff16815260200191505060405180910390a150565b828054600181600116156101000203166002900490600052602060002090601f016020900481019282601f10610f2a57805160ff1916838001178555610f58565b82800160010185558215610f58579182015b82811115610f57578251825591602001919060010190610f3c565b5b509050610f659190610f69565b5090565b610f8b91905b80821115610f87576000816000905550600101610f6f565b5090565b9056fea265627a7a723158202f702db439e39fdf6c142c6adc30b677b679a80b796ea89ee53ad0eee3d8b75e64736f6c634300050c0032",
  "source": "pragma solidity 0.5.12;\r\n\r\ncontract BadgeGenerator {\r\n\r\n  struct Badge {\r\n    uint256 id;\r\n    string metadataUrl;\r\n    address owner;\r\n    mapping(address => bool) badgeCreators;\r\n  }\r\n\r\n\r\n  address public owner;\r\n  uint256 public badgeCount;\r\n\r\n  mapping(uint256 => Badge) public badges;\r\n  mapping(address => bool) public creators;\r\n\r\n  event badgeCreated(uint256 badgeId);\r\n  event addedCreator(address _address);\r\n  event removedCreator(address _address);\r\n\r\n\r\n  constructor() public {\r\n    // set owner of contract\r\n    owner = msg.sender;\r\n    // add owner as creator\r\n    creators[msg.sender] = true;\r\n  }\r\n\r\n  modifier ownerOnly() {\r\n    require(msg.sender == owner, 'You are not the owner');\r\n    _;\r\n  }\r\n\r\n  modifier creatorOnly() {\r\n    require(creators[msg.sender], 'You are not a badge creator');\r\n    _;\r\n  }\r\n\r\n  modifier badgeOwnerOnly(uint256 _badgeId) {\r\n    Badge storage badge = badges[_badgeId];\r\n    require(badge.owner == msg.sender);\r\n    _;\r\n  }\r\n\r\n  function addCreator(address _address) public ownerOnly {\r\n    creators[_address] = true;\r\n    emit addedCreator(_address);\r\n  }\r\n\r\n  function removeCreator(address _address) public ownerOnly {\r\n    creators[_address] = false;\r\n    emit removedCreator(_address);\r\n  }\r\n\r\n  // Creates a new token type and assigns _initialSupply to minter\r\n  function createBadge(string memory _metadataUrl) public creatorOnly returns (uint256 badgeId) {\r\n    require(badgeCount >= 0, 'invalid badgeCount');\r\n\r\n    badges[badgeCount] = Badge(badgeCount, _metadataUrl, msg.sender);\r\n    addBadgeCreator(badgeCount, msg.sender);\r\n\r\n    emit badgeCreated(badgeCount);\r\n\r\n    badgeCount++;\r\n\r\n\r\n    return badgeCount -1;\r\n  }\r\n\r\n  function addBadgeCreator(uint256 _badgeId, address _address) public badgeOwnerOnly(_badgeId) {\r\n    require((_badgeId >= 0 && _badgeId <= badgeCount), 'invalid badge id');\r\n    badges[_badgeId].badgeCreators[_address] = true;\r\n  }\r\n\r\n  function removeBadgeCreator(uint256 _badgeId, address _address) public badgeOwnerOnly(_badgeId) {\r\n    require((_badgeId >= 0 && _badgeId <= badgeCount), 'invalid badge id');\r\n    badges[_badgeId].badgeCreators[_address] = false;\r\n  }\r\n\r\n  function isBadgeCreator(uint256 _badgeId, address _address) public view returns (bool) {\r\n    require((_badgeId >= 0 && _badgeId <= badgeCount), 'invalid badge id');\r\n    return badges[_badgeId].badgeCreators[_address];\r\n  }\r\n}\r\n",
  "sourcePath": "D:\\school\\minor-BC\\BC2_Lars\\Day_04\\contracts\\BadgeGenerator.sol",
  "compiler": {
    "name": "solc",
    "version": "0.5.12+commit.7709ece9.Emscripten.clang"
  },
  "schemaVersion": "3.2.0",
  "updatedAt": "2020-06-15T06:57:40.830Z",
  "networkType": "ethereum",
  "devdoc": {
    "methods": {}
  },
  "userdoc": {
    "methods": {}
  }
}